S00D00004C41425F362E73726563B3
S11300000C9434000C9451000C9451000C94510045
S11300100C9451000C9451000C9451000C94510018
S11300200C9451000C9451000C9451000C94510008
S11300300C9451000C9451000C9451000C945100F8
S11300400C9451000C9451000C9489000C945100B0
S11300500C9451000C9451000C9451000C945100D8
S11300600C9451000C94510011241FBECFEFD8E022
S1130070DEBFCDBF11E0A0E0B1E0E6E4F1E002C0F4
S113008005900D92AC30B107D9F721E0ACE0B1E0B6
S113009001C01D92AD30B207E1F70E9481000C94BB
S11300A0A1000C9400008AB18E7F8AB98AB1826063
S11300B08AB91092C000E1ECF0E010828081886976
S11300C08083E2ECF0E0108280818660808387E6A2
S11300D090E09093C5008093C4000895BC0120E093
S11300E030E008C09091C00095FFFCCF4093C6005B
S11300F02F5F3F4FFB01E20FF31F40814111F2CF0D
S113010008950E945300789480E091E00E946E006C
S1130110FFCF1F920F920FB60F9211248F938091ED
S1130120C60080930C018091C00085FFFCCF8091B4
S11301300C018093C6008F910F900FBE0F901F90FB
S10901401895F894FFCFAE
S10F0146486F6C61204D756E646F000002
S9030000FC
