:100000000C9434000C9446000C9446000C9446006A
:100010000C9446000C9446000C9446000C94460048
:100020000C9446000C9446000C9446000C94460038
:100030000C9446000C9446000C9446000C94460028
:100040000C9446000C9446000C9467000C944600F7
:100050000C9446000C9446000C9446000C94460008
:100060000C9446000C94460011241FBECFEFD8E03C
:10007000DEBFCDBF21E0A0E0B1E001C01D92A13004
:10008000B207E1F70E948E000C94D6000C94000099
:1000900084B18F6384B908958AB18E7F8AB98AB199
:1000A00082608AB91092C000E1ECF0E01082808199
:1000B00088698083E2ECF0E0108280818660808332
:1000C00087E690E09093C5008093C40008951F9246
:1000D0000F920FB60F9211248F938091C6008093D8
:1000E00000018091C00085FFFCCF809100018093CA
:1000F000C6008F910F900FBE0F901F90189520E0B3
:1001000030E009C0FB01E20FF31F982F917090833C
:1001100086952F5F3F4F8111F5CF0895CF93DF93E1
:10012000CDB7DEB728970FB6F894DEBF0FBECDBFB0
:100130000E944C0078940E944800809100018A300F
:10014000E1F7BE016F5F7F4F88E0FB0111928A9556
:10015000E9F7809100010E947F0080E090E022C0DA
:10016000E1E0F0E0EC0FFD1FE80FF91F20812223F2
:1001700061F045B121E030E0082E02C0220F331FAC
:100180000A94E2F7242B25B90CC045B121E030E0F8
:10019000082E02C0220F331F0A94E2F72095242371
:1001A00025B9019686309105DCF2C7CFF894FFCFD0
:00000001FF
