:100000000C9434000C9451000C9451000C94510049
:100010000C9451000C9451000C9451000C9451001C
:100020000C9451000C9451000C9451000C9451000C
:100030000C9451000C9451000C9451000C945100FC
:100040000C9451000C9451000C94A2000C9451009B
:100050000C9451000C9451000C9451000C945100DC
:100060000C9451000C94510011241FBECFEFD8E026
:10007000DEBFCDBF11E0A0E0B1E0E8E7F1E002C0F3
:1000800005900D92AC30B107D9F721E0ACE0B1E0BA
:1000900001C01D92AD30B207E1F70E9488000C94B8
:1000A000BA000C9400008AB18E7F8AB98AB182604E
:1000B0008AB91092C000E1ECF0E01082808188697A
:1000C0008083E2ECF0E0108280818660808387E6A6
:1000D00090E09093C5008093C40008959091C00073
:1000E00095FFFCCF8093C6000895BC0120E030E06E
:1000F00008C09091C00095FFFCCF4093C6002F5FD1
:100100003F4FFB01E20FF31F40814111F2CF0895F1
:100110000E945300789488E40E946E008FE60E944B
:100120006E008CE60E946E0081E60E946E008AE0FE
:100130000E946E008DE00E946E0080E091E00E94BF
:100140007500FFCF1F920F920FB60F9211248F935D
:100150008091C60080930C018091C00085FFFCCF88
:1001600080910C018093C6008F910F900FBE0F906D
:080170001F901895F894FFCFD1
:0C017800486F6C61204D756E646F0000D4
:00000001FF
