S00D00004C41425F362E73726563B3
S11300000C9434000C9451000C9451000C94510045
S11300100C9451000C9451000C9451000C94510018
S11300200C9451000C9451000C9451000C94510008
S11300300C9451000C9451000C9451000C945100F8
S11300400C9451000C9451000C94C6000C94510073
S11300500C9451000C946E000C9451000C945100BB
S11300600C9451000C94510011241FBECFEFD8E022
S1130070DEBFCDBF11E0A0E0B1E0E0ECF1E002C0F2
S113008005900D92AC30B107D9F721E0ACE0B1E0B6
S113009001C01D92AE30B207E1F70E94A3000C9498
S11300A0DE000C9400008AB18E7F8AB98AB1826026
S11300B08AB91092C000E1ECF0E010828081886976
S11300C08083E2ECF0E0108280818660808387E6A2
S11300D090E09093C5008093C40008951F920F92FE
S11300E00FB60F9211248F93EF93FF9380917900B1
S11300F085B9EAE7F0E08081806180838081806453
S11301008083FF91EF918F910F900FBE0F901F90FE
S113011018959091C00095FFFCCF8093C600089578
S1130120BC0120E030E008C09091C00095FFFCCFF6
S11301304093C6002F5F3F4FFB01E20FF31F408146
S11301404111F2CF089584B18F6384B9F8940E9469
S11301505300789488E40E9489008FE60E94890005
S11301608CE60E94890081E60E9489008AE00E9450
S113017089008DE00E94890080E091E00E94900057
S1130180EAE7F0E0808180648083FFCF1F920F92C2
S11301900FB60F9211248F938091C60080930D01A6
S11301A08091C00085FFFCCF80910D018093C60033
S11301B08F910F900FBE0F901F901895F894FFCF5A
S10F01C0486F6C61204D756E646F000088
S9030000FC
