:100000000C9434000C9446000C9446000C9446006A
:100010000C9446000C9446000C9446000C94460048
:100020000C9446000C9446000C9446000C94460038
:100030000C9446000C9446000C9446000C94460028
:100040000C9446000C9446000C946A000C944600F4
:100050000C9446000C9446000C9446000C94460008
:100060000C9446000C94460011241FBECFEFD8E03C
:10007000DEBFCDBF21E0A0E0B1E001C01D92A13004
:10008000B207E1F70E9490000C94E2000C9400008B
:1000900084B18F6084B98AB1806F8AB908958AB1BA
:1000A0008E7F8AB98AB182608AB91092C000E1EC71
:1000B000F0E01082808188698083E2ECF0E01082B9
:1000C00080818660808387E690E09093C50080936E
:1000D000C40008951F920F920FB60F9211248F93B0
:1000E0008091C600809300018F910F900FBE0F90FA
:1000F0001F90189540E050E00FC0FB01E40FF51F82
:10010000282F30E0042E02C0359527950A94E2F797
:10011000217020834F5F5F4F4830510574F308957D
:10012000CF93DF93CDB7DEB728970FB6F894DEBF35
:100130000FBECDBF0E944F0078940E94480080916E
:1001400000018A30E1F7BE016F5F7F4F88E0FB015D
:1001500011928A95E9F7809100010E947A006981E5
:100160009A81492F50E0440F551F9B81292F30E081
:10017000220F331F220F331F9C81892F90E0880F9D
:10018000991F880F991F880F991F462B242B822BAC
:1001900085B94D81F0E14F9FB00111249E8180E22D
:1001A000989FA00111249F81E0E49E9F900111245B
:1001B0009885F0E89F9FC0011124462B242B822BA9
:0801C0008BB9BDCFF894FFCF0D
:00000001FF
