S00D00004C41425F362E73726563B3
S11300000C9434000C9446000C9446000C94460066
S11300100C9446000C9446000C9446000C94460044
S11300200C9446000C9446000C9446000C94460034
S11300300C9446000C9446000C9446000C94460024
S11300400C9446000C9446000C9464000C944600F6
S11300500C9446000C9446000C9446000C94460004
S11300600C9446000C94460011241FBECFEFD8E038
S1130070DEBFCDBF21E0A0E0B1E001C01D92A13000
S1130080B207E1F70E9474000C947A000C9400000B
S113009080910001882329F08091000185B9109294
S11300A00001089588E98093C10086E08093C2002E
S11300B087E690E09093C5008093C40008958FEF85
S11300C084B90E94520008951F920F920FB60F92A6
S11300D011248F938091C600809300018F910F901B
S11300E00FBE0F901F9018950E945F0078940E9495
S10B00F04800FDCFF894FFCF96
S9030000FC
