S00D00004C41425F362E73726563B3
S11300000C9434000C9446000C9446000C94460066
S11300100C9446000C9446000C9446000C94460044
S11300200C9446000C9446000C9446000C94460034
S11300300C9446000C9446000C9446000C94460024
S11300400C9446000C9446000C947A000C944600E0
S11300500C9446000C9446000C9446000C94460004
S11300600C9446000C94460011241FBECFEFD8E038
S1130070DEBFCDBF21E0A0E0B1E001C01D92A13000
S1130080B207E1F70E946E000C9492000C940000F9
S113009084B18F6384B908958AB18E7F8AB98AB195
S11300A082608AB91092C000E1ECF0E01082808195
S11300B088698083E2ECF0E010828081866080832E
S11300C087E690E09093C5008093C40008959091D2
S11300D0C00095FFFCCF8093C60008950E944C0099
S11300E0789480E00E9467000E944800809100019B
S11300F085B9FCCF1F920F920FB60F9211248F93E4
S11301008091C600809300018091C00085FFFCCFE0
S1130110809100018093C6008F910F900FBE0F90C5
S10B01201F901895F894FFCF1D
S9030000FC
