S00D00004C41425F362E73726563B3
S11300000C9434000C9446000C9446000C94460066
S11300100C9446000C9446000C9446000C94460044
S11300200C9446000C9446000C9446000C94460034
S11300300C9446000C9446000C9446000C94460024
S11300400C9446000C9446000C945F000C944600FB
S11300500C9446000C9446000C9446000C94460004
S11300600C9446000C94460011241FBECFEFD8E038
S1130070DEBFCDBF21E0A0E0B1E001C01D92A13000
S1130080B207E1F70E9486000C94D0000C940000A3
S113009084B18F6384B908958AB18E7F8AB98AB195
S11300A082608AB988E98093C10087E690E09093E2
S11300B0C5008093C40086E08093C20008951F9217
S11300C00F920FB60F9211248F938091C6008093E4
S11300D000018091C00085FFFCCF809100018093D6
S11300E0C6008F910F900FBE0F901F90189520E0BF
S11300F030E009C0FB01E20FF31F982F9170908349
S113010086952F5F3F4F8111F5CF0895CF93DF93ED
S1130110CDB7DEB728970FB6F894DEBF0FBECDBFBC
S11301200E944C000E94480078948091000188232A
S1130130E1F3BE016F5F7F4F88E0FB0111928A9566
S1130140E9F7809100010E94770080E090E022C0EE
S1130150E1E0F0E0EC0FFD1FE80FF91F20812223FE
S113016061F045B121E030E0082E02C0220F331FB8
S11301700A94E2F7242B25B90CC045B121E030E004
S1130180082E02C0220F331F0A94E2F7209524237D
S113019025B9019686309105DCF210920001C5CF95
S10701A0F894FFCFFD
S9030000FC
