S00D00004C41425F362E73726563B3
S11300000C9434000C9446000C9446000C94460066
S11300100C9446000C9446000C9446000C94460044
S11300200C9446000C9446000C9446000C94460034
S11300300C9446000C9446000C9446000C94460024
S11300400C9446000C9446000C946D000C944600ED
S11300500C9446000C9446000C9446000C94460004
S11300600C9446000C94460011241FBECFEFD8E038
S1130070DEBFCDBF21E0A0E0B1E001C01D92A13000
S1130080B207E1F70E945E000C947D000C9400001E
S11300908FEF84B908958AB18E7F8AB98AB182605C
S11300A08AB988E18093C10087E690E09093C50007
S11300B08093C40086E08093C20008950E944B00A0
S11300C00E9448007894809100018823E1F3809194
S11300D0000185B910920001F6CF1F920F920FB65E
S11300E00F9211248F938091C600809300018F9109
S11100F00F900FBE0F901F901895F894FFCF3D
S9030000FC
