S00D00004C41425F362E73726563B3
S11300000C9434000C9451000C9451000C94510045
S11300100C9451000C9451000C9451000C94510018
S11300200C9451000C9451000C9451000C94510008
S11300300C9451000C9451000C9451000C945100F8
S11300400C9451000C9451000C9482000C945100B7
S11300500C9451000C9451000C9451000C945100D8
S11300600C9451000C94510011241FBECFEFD8E022
S1130070DEBFCDBF11E0A0E0B1E0ECE4F1E002C0EE
S113008005900D92AC30B107D9F721E0ACE0B1E0B6
S113009001C01D92AD30B207E1F70E949A000C94A2
S11300A0A4000C94000080910C01882329F0809115
S11300B00C0185B910920C01089588E98093C10060
S11300C086E08093C20087E690E09093C500809319
S11300D0C40008958FEF84B90E945D000895BC01A7
S11300E020E030E008C09091C00095FFFCCF409321
S11300F0C6002F5F3F4FFB01E20FF31F4081411108
S1130100F2CF08951F920F920FB60F9211248F937E
S11301108091C60080930C018091C00085FFFCCFC4
S113012080910C018093C6008F910F900FBE0F90A9
S11301301F9018950E946A00789480E091E00E94D4
S10F01406F000E945300FDCFF894FFCF25
S10F014C486F6C61204D756E646F0000FC
S9030000FC
